:1000000001280A309F0083168601FF308500883062
:100010009F00831285018601A5010E28030101308E
:10002000A00086000310A5141528182023201528E9
:10003000851B1B20080003100311382020088600B0
:100040000310462015289F1B28209F1F2D200800E5
:10005000A51808003220A5140800A51C08003220AD
:10006000A510080001302006A0008600031008003B
:10007000A01B4220251CA00D2510080001302007E0
:10008000A000080025140130A00008005630A3008D
:10009000CC30A4004B28A40324090319A30324088B
:0A00A0002304031D4B280000080094
:02400E00383F39
:00000001FF
