:1000000001280A309F0083168601FF308500883062
:100010009F00831285018601A5010E28030101308E
:10002000A000860003101428172022201428851B06
:100030001A20080003100311312020088600031045
:100040003F2014289F1B27209F1F2C2008000130D1
:100050002038860003100800003020388600031086
:100060000800A01B3B20251CA00D25100800013016
:100070002007A000080025140130A00008002B3044
:10008000A3006630A4004428A40324090319A30391
:0C00900024082304031D4428000008007D
:02400E00383F39
:00000001FF
